S0210000342E342E325F7261775F62746D6573685F736F635F656D7074792E73333720
S2140120000012002019090200D10B0500D10B0500B2
S214012010EF1C0500D10B0500D10B0500D10B050007
S214012020D10B0500D10B0500D10B0500D10B050026
S214012030D10B05005CA30600CD090500D10B0500F8
S214012040D10B0500D10B0500D10B0500D10B050006
S214012050D10B0500D10B0500D10B0500D10B0500F6
S214012060D10B0500D10B050079520200D10B0500FA
S214012070D10B0500D10B0500D10B0500D10B0500D6
S214012080D10B0500D10B0500D10B0500D10B0500C6
S214012090D10B0500D10B0500D10B0500D10B0500B6
S2140120A0D10B0500D10B0500D10B0500D10B0500A6
S2140120B0D10B0500173F0600D10B05006DDD0400AE
S2140120C01D3F0600193F060001D50400293F060002
S2140120D0213F060031DD0400253F0600EDBB04006C
S2140120E0ADDD0400D10B0500D10B0500D10B0500B9
S2140120F0D10B0500D10B0500D10B0500D10B050056
S214012100D10B0500D10B0500D10B0500D10B050045
S214012110D10B0500D10B0500D10B0500D10B050035
S214012120D10B0500D10B0500D10B0500D10B050025
S214012130D10B050000000000002370B5404C054699
S2140121408AB0E36318B1008823601AF04BF93D4862
S21401215051F031FA3C4E3D4B304633603C4B736098
S21401216044F0BEFA0021304635F00EFB32A3D3E927
S2140121700023A062C4E9062344F0BDFAD4E906238D
S21401218019431043C4E90601CDE900014FF0FF33BE
S2140121904FF0FF32A06A51F055FA02224FF0FF319C
S2140121A0A06A51F054FA012019F0B0FD4FF4007303
S2140121B000222849A06A51F09BFAB0F5007F38D179
S2140121C000239422CDE9073309933C23CDE903325A
S2140121D005939623A06A03A9069335F0F3FB35B35E
S2140121E0287C1AF09FF90546F0B9A06A51F05DFB0C
S2140121F01AF046F919F06CFD20B14FF480700021F9
S21401220016F08CFD19F074FD20B14FF4006000212A
S21401221016F084FD44F033FB012035F009FB0E4A2D
S2140122200E49A06A44F05AFA28460AB070BDFF204B
S214012230D7E70725F8E700BF0DD5015520000000B8
S21401224020200020690345EC343E002091BB0200AB
S214012250443E0020343C002085660500C566050026
S2140122602DE9F04F2DED028B8DB0089046F0D1FD93
S214012270834608988A4646F0B2FE0446002800F0D7
S214012280F181D0E9182352EA030112D093457AEB83
S214012290030308D3002200230621C0E91823FF22E6
S2140122A0806E2EF0AFFAD4E91867B3457AEB0703D0
S2140122B002D34FF0FF363746D4E91C2352EA030116
S2140122C04FD093457AEB030343D3A07B46F0B3FD8F
S2140122D0D4E91C23801843EB01018345C4E91C01A2
S2140122E07AEB0101F1D2A36F1846079346F077FE09
S2140122F0054670B36FF07F4382689A4264D14FF00F
S214012300000807984CF043FD47F6FF734FF6FF7938
S21401231000FB0030B0FBF9F189B2414538BF4146B8
S21401232007984CF0C0FC95F85D309B0711D52A7CC8
S214012330EB7B079843EA0223ADF828300AAB0193FA
S21401234008230022009311464B462D68ADF82A80DB
S214012350A847D4E91C23B24273EB07013CBF1646DB
S2140123601F4625469FEDC28B04F16008D5E922235E
S21401237052EA03010ED093457AEB0301C0F0568171
S21401238095F8980085ED228B002800F02881012819
S21401239000F03A811835A845E8D1D4E9582352EA25
S2140123A003010AD093457AEB030180F04681B242DD
S2140123B073EB070101D216461F46304639460DB06B
S2140123C0BDEC028BBDE8F08F90F85E30002B96D006
S2140123D007984CF027FD07EE900A9FEDA77AF8EED6
S2140123E0677AC7EE878A18EE900A3BF071FED5ED44
S2140123F0027AF8EE677A804617EE900A89463BF035
S21401240067FE00229D4B3BF0E5FF02460B46404629
S21401241049463BF0FDFC3CF0E5F895F8403008EE07
S214012420100A07EE903AF8EE677A67EEA87A17EE8A
S214012430900A3BF04DFE95F85F300022002B68D0E5
S2140124408F4B3BF0C7FF3CF0CDF807EE900AB4EE99
S214012450E78AF1EE10FAB5F80F30DFED8A8AA87B2D
S214012460099358DD38EE678AB5EEC08AF1EE10FAA8
S21401247062D53BF01BFE0022834B3BF0ABFF804650
S21401248018EE100A89463BF023FE02460B464046EC
S21401249049463BF075FE8046D5F8410089463BF03B
S2140124A017FE02460B46404649463BF069FE80460B
S2140124B0099889463BF0FAFD02460B4640464946D6
S2140124C03BF0A8FC3CF08EF807EE900AF4EEE87AB2
S2140124D0F1EE10FA29DCF5EEC07AF1EE10FA27D407
S2140124E0FCEEE77A17EE903A9BB2D5F84920A5F8AC
S2140124F00F3007EE903A07EE102AF8EEE77A48EE2C
S214012500077AF4EEE87AF1EE10FA5BDD4FF6FF7823
S214012510F7E65E4B95E7B1EE677AB4EEC78AF1EE61
S21401252010FA07D538EE278A9EE74FF6FF73DCE7E9
S2140125300023DAE79FED568A3BF0B8FD0022524BA6
S2140125403BF048FF804618EE100A89463BF0C0FD76
S21401255002460B46404649463BF012FE8046D5F8F9
S214012560450089463BF0B4FD02460B4640464946C7
S2140125703BF006FE8046099889463BF097FD0246E9
S2140125800B46404649463BF045FC3CF02BF807EE2F
S214012590900AF4EEE87AF1EE10FA0EDCF5EEC07A67
S2140125A0F1EE10FA0CD4FCEEE77A17EE903A9BB2F5
S2140125B0D5F84D20A5F80F309BE74FF6FF73F7E7E8
S2140125C00023F5E7F5EEC07AF1EE10FA3FF597AE87
S2140125D0FCEEE77A17EE903A1FFA83F891E6B5F823
S2140125E09230B5F89020B5F8941005900120CDE909
S2140125F00300029095F89700019095F896000090D8
S21401260008984CF00FFDC5E695F89600B5F89220AF
S214012610B5F89010B5F89430009008984CF003FB8C
S214012620FF22032108982EF0EDF8B3E6B24273EBD1
S21401263007013CBF16461F46ACE600230122CDE942
S2140126400223CDE90422019394F868214FF6FF7125
S214012650009208981A464CF0E5FC00220023C4E9D3
S2140126605823AAE64FF0FF363746A6E6AFF30080BA
S21401267000000000000000000000C84200005940B1
S2140126800000694000FF7F4700408F40000079400E
S214012690000000000348044B834202D0034B03B101
S2140126A018477047A81F0020A81F00200000000040
S2140126B0064B0749C91A891048BF0131491003D092
S2140126C0044B0BB101481847704700BFA81F0020F4
S2140126D0A81F00200000000010B5064C237843B95F
S2140126E0FFF7D8FF044B13B10448AFF30080012372
S2140126F0237010BD6E480020000000000CE60600A6
S21401270008B5054B1BB105490548AFF30080BDE888
S2140127100840FFF7CDBF00BF00000000B82500202D
S2140127200CE60600A3F5803A704700BF174B002B56
S21401273008BF134B9D46FFF7F5FF00218B460F465A
S2140127401348144A121A51F0D2FC0E4B002B00D03B
S21401275098470D4B002B00D098470020002104001D
S2140127600D000D48002802D00C48AFF300803CF065
S21401277007FD200029003EF01DF93CF079FA00BF64
S2140127800000080000000000000000000012002009
S214012790A81F0020984A002000000000000000004A
S2140127A008B503680C4A23F47F4323F007039342DA
S2140127B011D10A49002041F0A4FA0949002041F04C
S2140127C0A0FA0849002041F09CFABDE80840002024
S2140127D0054941F096BA08BDA0000100604F060009
S2140127E0894F0600B34F0600DB4F060003680E4A0A
S2140127F023F47F4323F00703934204D002F1C0621F
S214012800934209D070478288084B09491A801A8872
S21401281092B2002041F075BA8288044B05491A80AD
S2140128201A8892B2F5E700BFA8001401E04700201D
S2140128300C5006003C50060008B504481FF0FAFD8F
S2140128403EF08EF9BDE8084046F07CBA44530600D7
S21401285010B51E4C3EF018FA236F23F0070343F021
S214012860020323673EF017FAD4F82031002023F044
S214012870070343F00103C4F82031D4F8403123F0B4
S214012880030343F00103C4F84031D4F8603123F068
S214012890030343F00103C4F86031D4F8403223F057
S2140128A0030343F00103C4F84032D4F8003223F0A6
S2140128B0070343F00103C4F80032D4F8083223F0CA
S2140128C0070343F00103C4F8083210BD008000502E
S2140128D007B501A80EF092FF9DF80530012B27D110
S2140128E0204A936DDB0313D4536B23F4FF0323F4C5
S2140128F0FE4343F4BC1343F4A0635363136B23F406
S214012900704343F440431363136B43F4E063136370
S2140129109DF8043063B94FF000531B68124B1B68D7
S214012920124B1B68124B1B68124B1B68124B1B6821
S214012930124AD2F8803043F00303C2F8803011F017
S21401294093FB11F051FB11F057FBFFF781FF11F0DC
S21401295039FB0EF0DFF80EF025F903B05DF804EB55
S21401296011F056BD00C0005000400020008000203D
S21401297000C000200000012000400120008000501F
S2140129801A4B37B583422ED1194B1B785BB3C8B2AD
S2140129901CF0BEF9054630B3164C174920683FF0C7
S2140129A067F9164920683FF063F9154920683FF03A
S2140129B05FF90DF0F9FD0DF02BFE124B124A009354
S2140129C01249852320683FF053F911492B46114AD5
S2140129D020683FF04DF928460DF050FE0E4920685C
S2140129E03FF046F9FEE703B030BD00BFD02500201A
S2140129F06F4800203C2900200A50060016540600A5
S214012A0025540600CD5406002A54060098540600A4
S214012A10A7540600A4540600BC54060030B5002591
S214012A2003685D4A23F47F4323F0070385B093428E
S214012A3004460295ADF80C5000F0878002F580221E
S214012A4093420ED0A2F18272934240F0A280534B81
S214012A501B78002B00F09D8005B0BDE830403FF0AC
S214012A602FBAB0F80530252B40F09380FF2304A938
S214012A701A4611E903003EF06BF8012814BF41F233
S214012A80FC15464B05F0FC0208BF1870252120797D
S214012A901CF0A4F9054630B3414C424920683FF08A
S214012AA0E7F8414920683FF0E3F8404920683FF0E5
S214012AB0DFF80DF079FD0DF0ABFD3D4B3D4A00937F
S214012AC03D49592320683FF0D3F83C492B463C4A00
S214012AD020683FF0CDF828460DF0D0FD3949206832
S214012AE03FF0C6F8FEE7384900902379374A09686F
S214012AF037480DF01DFE054600284AD0284C2949C6
S214012B0020683FF0B5F8284920683FF0B1F827491A
S214012B1020683FF0ADF80DF047FD0DF079FD244B30
S214012B20244A00932449622320683FF0A1F82349F0
S214012B302B46234A20683FF09BF828460DF09EFD61
S214012B40204920683FF094F8FEE7B0F80530B7EE6C
S214012B50047A07EE903AF8EE677AB0F8073067EE37
S214012B60877A013307EE103AB8EEC77A67EE877AAE
S214012B70B1EE047A67EE877AFAFE677AFCEEE77AB8
S214012B8017EE903AB3F57A7F38BF4FF47A730E4A50
S214012B90136005B030BD00BFA00006026F480020DC
S214012BA03C2900200A50060016540600255406004B
S214012BB0DC5406002A54060098540600A754060062
S214012BC0A4540600BC5406001C12002081290100F2
S214012BD0D0250020F8B5084E0C4605460749306852
S214012BE03FF046F8064F013C2A5D394630683FF013
S214012BF03FF8013CF8D2F8BD3C290020FC54060001
S214012C004B550600F8B50B4E04460D4630680A498A
S214012C103FF02EF8094F2544AC42306804D1BDE898
S214012C20F84007493FF024B8394614F8012B3FF025
S214012C301FF8F1E73C290020FF5406004B5506001B
S214012C400155060010B5094C094920683FF010F8F7
S214012C500DF0AAFC0DF0DCFC064920683FF008F8F0
S214012C6020680549BDE810403FF002B83C29002025
S214012C70035506000F5506002055060073B5054698
S214012C80002852D00668AA4B26F47F4626F007068F
S214012C909E4204F0AE8601F20684A3F134739E428E
S214012CA0A44C07F00F8200F2F985A3F56D039E424E
S214012CB008F0ED8300F21083A3F568139E4208F036
S214012CC0618000F26F81A3F590139E4204F0288084
S214012CD000F29580A3F5C0239E4203F0EF8526D827
S214012CE0A3F580239E4203F0D98103F540339E422B
S214012CF003F06285A3F580239E4202F020868D4C68
S214012D008D4920683EF0B4FF0DF04EFC0DF080FCBE
S214012D108A4920683EF0ACFF330E0093324688495C
S214012D202068C6F307433EF0A3FF02B070BD854B93
S214012D309E4203F0F18603F540339E4203F064871A
S214012D40A3F580239E42DAD17B4920683EF090FFAE
S214012D500DF02AFC0DF05CFC7B4920683EF088FFF4
S214012D607A4920683EF084FFAA88794920683EF0B7
S214012D707FFF784920683EF07BFFEA887449206827
S214012D803EF076FF744920683EF072FF2A8970494A
S214012D9020683EF06DFF714920683EF069FF6A8940
S214012DA06B4920683EF064FF6D4920683EF060FF85
S214012DB02A7B6C4920683EF05BFF6B4920683EF039
S214012DC057FF6A7B674920683EF052FF67492068D3
S214012DD03EF04EFFEA895E4920683EF049FF6449AD
S214012DE020683EF045FF297C05F11100FFF70AFF38
S214012DF06049206802B0BDE870403EF039BF5E4BC6
S214012E009E4204F0BC813CD8A3F580239E4204F088
S214012E10B78003F580339E4204F05E81A3F500334C
S214012E209E427FF46CAF444920683EF021FF0DF0CE
S214012E30BBFB0DF0EDFB514920683EF019FF5049F0
S214012E4020683EF015FFAA88414920683EF010FF31
S214012E504C4920683EF00CFFAA79424920683EF0B2
S214012E6007FF494920683EF003FFEA793D4920689B
S214012E703EF0FEFE3F49206802B0BDE870403EF0DD
S214012E80F7BE424B9E4205F06A8003F5E0239E4260
S214012E9007F00486A3F500239E427FF430AF26494F
S214012EA020683EF0E5FE0DF07FFB0DF0B1FB3849E2
S214012EB020683EF0DDFE274920683EF0D9FEAA884C
S214012EC0234920683EF0D4FE234920683EF0D0FE18
S214012ED0EA881F4920683EF0CBFE2E4920683EF066
S214012EE0C7FE2A7A1F4920683EF0C2FE2A4920689A
S214012EF03EF0BEFE6A7A1B4920683EF0B9FE2749BD
S214012F0020683EF0B5FE6A89114920683EF0B0FEA1
S214012F10234920683EF0ACFEAA890D4920683EF0A0
S214012F20A7FE1449206802B0BDE870403EF0A0BE7E
S214012F30A80028043C290020035506003286060016
S214012F4038860600A8001B00F25E0600145F060025
S214012F505A550600FB5D0600255F06006F56060003
S214012F60365F060049550600405F06000157060019
S214012F704A5F060020550600A800270000610600EB
S214012F80775D0600316106003B610600A800290056
S214012F90FD670600286806003D68060052680600C0
S214012FA05F680600AD4B9E4206F0D68200F2B68000
S214012FB0A3F5A0239E4205F0B58658D8A3F5403365
S214012FC09E4205F06D8303F580339E4205F09C8595
S214012FD0A3F500339E427FF492AEA14920683EF0ED
S214012FE047FE0DF0E1FA0DF013FB9E4920683EF016
S214012FF03FFE9D4920683EF03BFEAA889B4920681B
S2140130003EF036FE9A4920683EF032FEEA8897493D
S21401301020683EF02DFE974920683EF029FE2A8959
S214013020924920683EF024FE934920683EF020FE37
S2140130306A898E4920683EF01BFE904920683EF062
S21401304017FE2A7B8E4920683EF012FE8D492068C5
S2140130503EF00EFEB5F80D20844920683EF008FECD
S2140130608949206802B0BDE870403EF001BE874B3A
S2140130709E4206F0D28003F580339E4206F016810A
S214013080A3F500339E427FF43AAE754920683EF0C0
S214013090EFFD0DF089FA0DF0BBFA7D4920683EF090
S2140130A0E7FD7C4920683EF0E3FDAA886F49206869
S2140130B03EF0DEFD6E4920683EF0DAFDEA886B4997
S2140130C020683EF0D5FD6B4920683EF0D1FD2A8987
S2140130D0664920683EF0CCFD674920683EF0C8FD91
S2140130E06A89624920683EF0C3FD6B4920683EF05C
S2140130F0BFFD2A7B624920683EF0BAFD6749206819
S2140131003EF0B6FD6A7B5E4920683EF0B1FD5E4941
S214013110206802B0BDE870403EF0AABD604B9E42FA
S21401312006F0328461D8A3F580239E4206F03F86DE
S21401313003F580339E4206F0B582A3F500339E4226
S2140131407FF4DDAD464920683EF092FD0DF02CFA85
S2140131500DF05EFA534920683EF08AFD4449206826
S2140131603EF086FDAA88414920683EF081FD4E4921
S21401317020683EF07DFDA81D0821FFF72BFD4B4979
S21401318020683EF075FDAA7B3D4920683EF070FD43
S214013190474920683EF06CFDEA7B394920683EF0DD
S2140131A067FD444920683EF063FD2A7C3449206867
S2140131B03EF05EFD404920683EF05AFDD5F81120EC
S2140131C03E4920683EF054FD3D4920683EF050FDE2
S2140131D0B5F915203B4920683EF04AFD2A4920688A
S2140131E002B0BDE870403EF043BD374B9E4206F04C
S2140131F0298703F500339E427FF481AD1849206884
S2140132003EF036FD0DF0D0F90DF002FA2F49206898
S2140132103EF02EFD164920683EF02AFDAA88134985
S21401322020683EF025FD2A4920683EF021FDAA7956
S214013230134920683EF01CFD264920683EF018FD23
S214013240B5F80720094920683EF012FD0E492068AE
S21401325002B0BDE870403EF00BBD00BFA8005100B3
S21401326003550600716D0600255F06005A550600D7
S214013270FB5D0600145F0600925E060052600600C3
S21401328049550600EC6C060020550600A8004E00C5
S214013290F2710600605E06000F7206001C720600E0
S2140132A0A80057006B7706008A7706009877060015
S2140132B0A4770600B2770600C37706004B8906009E
S2140132C0D37706003C5B0600A80058004C81060038
S2140132D07A5706004D7B0600A54B9E4207F04684B2
S2140132E000F20E81A3F5A8139E4203F03A847FD81C
S2140132F0A3F5C0239E4202F09E8746D8A3F5A013ED
S2140133009E4203F0A48203F598139E4202F047837F
S214013310A3F528039E427FF4F2AC964920683EF05E
S214013320A7FC0DF041F90DF073F9934920683EF0C2
S2140133309FFC924920683EF09BFCAA889049206831
S2140133403EF096FC8F4920683EF092FCEA888C4954
S21401335020683EF08DFC8C4920683EF089FC95F98A
S21401336008208A4920683EF083FC894920683EF09F
S2140133707FFC6A7A874920683EF07AFC8649206895
S21401338002B0BDE870403EF073BC844B9E4203F031
S214013390168303F580339E4203F07E83A3F5003344
S2140133A09E427FF4ACAC734920683EF061FC0DF0A0
S2140133B0FBF80DF02DF97A4920683EF059FC794961
S2140133C020683EF055FC6A68774920683EF050FC5C
S2140133D0764920683EF04CFC2A89694920683EF00F
S2140133E047FC6D49206802B0BDE870403EF040BC25
S2140133F06F4B9E4203F095864ED8A3F500339E424E
S21401340003F03C8503F580339E4203F01B86A3F54B
S21401341080239E427FF473AC564920683EF028FC18
S2140134200DF0C2F80DF0F4F8624920683EF020FC79
S214013430614920683EF01CFCAA88514920683EF08C
S21401344017FC5E4920683EF013FCEA884C49206868
S2140134503EF00EFC5A4920683EF00AFCAA68524922
S21401346020683EF005FC574920683EF001FC2A7BA7
S214013470484920683EF0FCFB534920683EF0F8FBC3
S214013480697B05F10E00FFF7BDFB4349206802B0DA
S214013490BDE870403EF0ECBB4C4B9E4204F0FC8213
S2140134A003F580339E4204F0A285A3F500339E42C5
S2140134B07FF425AC2F4920683EF0DAFB0DF074F856
S2140134C00DF0A6F8424920683EF0D2FB414920683B
S2140134D03EF0CEFBAA882A4920683EF0C9FB314956
S2140134E020683EF0C5FBD5F806202F4920683EF03F
S2140134F0BFFB2949206802B0BDE870403EF0B8BB6A
S214013500354B9E4205F0308700F2BA80A3F5C02302
S2140135109E4205F00E8165D8A3F500339E4204F065
S2140135202B8603F580339E4204F05E87A3F5B8131D
S2140135309E427FF4E4AB0F4920683EF099FB0DF004
S21401354033F80DF065F8254920683EF091FB2449D3
S21401355020683EF08DFB2A790E4920683EF088FBF4
S2140135600D49206802B0BDE870403EF081BB00BF47
S214013570A8003001035506001B860600605E0600A3
S2140135805A550600765E0600355B06003C5B060073
S214013590896406004955060020550600A800190151
S2140135A0445D06003B5D06006C550600085A0600A1
S2140135B0A8002401A6600600FB5D06000D57060064
S2140135C043600600AC5606005A600600A8002801B3
S2140135D0FD6206006F560600A8004F010B8106002B
S2140135E03F810600904B9E4205F0DC8303F5803355
S2140135F09E4205F09684A3F540339E427FF47FAB4E
S2140136008A4920683EF034FB0CF0CEFF0DF000F83E
S214013610874920683EF02CFB864920683EF028FB4F
S214013620AA88854920683EF023FB844920683EF03D
S2140136301FFBEA88804920683EF01AFB8049206813
S2140136403EF016FB2A7A7F4920683EF011FB7E4940
S21401365020683EF00DFB6A7A7A4920683EF008FB46
S2140136607A4920683EF004FBA97A05F10B00FFF7C2
S214013670C9FA7749206802B0BDE870403EF0F8BA52
S214013680744B9E4206F0028445D8A3F500339E4251
S21401369005F0A28703F580339E4206F0BE82A3F5AD
S2140136A000339E427FF42BAB604920683EF0E0FA7F
S2140136B00CF07AFF0CF0ACFF674920683EF0D8FAB0
S2140136C0664920683EF0D4FAAA885B4920683EF035
S2140136D0CFFA584920683EF0CBFAEA885649206866
S2140136E03EF0C6FA5E4920683EF0C2FA2A8952497F
S2140136F020683EF0BDFA5B4920683EF0B9FA6A8957
S2140137004D4920683EF0B4FA5149206802B0BDE840
S21401371070403EF0ADBA544B9E4206F02B8003F546
S21401372080339E427FF4EBAA404920683EF0A0FA1F
S2140137300CF03AFF0CF06CFF4C4920683EF098FA0A
S2140137403C4920683EF094FAAA883B4920683EF03E
S2140137508FFA3B4920683EF08BFAAA7939492068EE
S2140137603EF086FA424920683EF082FAEA79354907
S21401377020683EF07DFA3F4920683EF079FA2A89B2
S2140137802D4920683EF074FA3B4920683EF070FAF5
S214013790AA7A2C4920683EF06BFA384920683EF038
S2140137A067FAEA7A274920683EF062FA34492068C7
S2140137B03EF05EFA2A7B234920683EF059FA3149E9
S2140137C020683EF055FA6A7B1E4920683EF050FAA2
S2140137D02D4920683EF04CFAAA7B1A4920683EF033
S2140137E047FA2A4920683EF043FAEA7B15492068E1
S2140137F03EF03EFA264920683EF03AFA2A69254903
S21401380020683EF035FA244920683EF031FAAA8A4B
S214013810094920683EF02CFA0D49206802B0BDE83F
S21401382070403EF025BA00BFA8004C0103550600C3
S21401383030700600FB5D06005A550600255F06003F
S214013840B356060049550600775D06005E70060011
S21401385020550600A800530135740600605E060078
S214013860145F0600925E0600A8005401EB75060080
S214013870977506009E750600A6750600AC750600CF
S214013880B3750600BC750600C5750600D37506003F
S214013890EB6006006C550600DC7506008F4B9E42F9
S2140138A007F0898300F22A83A3F57C139E4203F076
S2140138B0EE8300F29781A3F538039E4207F00D864A
S2140138C000F2AE80A3F5E0239E4207F04D8460D857
S2140138D0A3F500339E4207F0078303F580339E422B
S2140138E007F0BC83A3F510239E427FF408AA7C4907
S2140138F020683EF0BDF90CF057FE0CF089FE7949C0
S21401390020683EF0B5F9784920683EF0B1F9AA88FA
S214013910764920683EF0ACF9754920683EF0A8F972
S214013920EA88724920683EF0A3F9724920683EF0A1
S2140139309FF92A7A704920683EF09AF96F49206803
S2140139403EF096F96A7A6C4920683EF091F96C4926
S21401395020683EF08DF9AA7A674920683EF088F91A
S214013960684920683EF084F9EA7A634920683EF0A7
S2140139707FF9654920683EF07BF92A7B5E4920681D
S2140139803EF076F96149206802B0BDE870403EF02D
S2140139906FB95F4B9E4207F0DB8403F580339E428E
S2140139A007F02C85A3F540339E427FF4A8A94C4925
S2140139B020683EF05DF90CF0F7FD0CF029FE554944
S2140139C020683EF055F9544920683EF051F96A687E
S2140139D0524920683EF04CF9514920683EF048F9BA
S2140139E02A7A454920683EF043F94E4920683EF060
S2140139F03FF9B5F809203D4920683EF039F94A49B2
S214013A0020683EF035F9B5F80B20384920683EF0BD
S214013A102FF93E49206802B0BDE870403EF028B953
S214013A20424B9E4202F0E48600F28E80A3F580238C
S214013A309E4201F0DA8703F580339E4202F01F842E
S214013A40A3F5A0139E427FF45AA9254920683EF0AB
S214013A500FF90CF0A9FD0CF0DBFD354920683EF0AE
S214013A6007F9344920683EF003F9AA881F492068FF
S214013A703EF0FEF8304920683EF0FAF8AA791E4971
S214013A8020683EF0F5F8184920683EF0F1F8EA792A
S214013A90194920683EF0ECF8284920683EF0E8F81D
S214013AA02A89124920683EF0E3F8254920683EF04D
S214013AB0DFF86A890D4920683EF0DAF82149206866
S214013AC03EF0D6F8AA89094920683EF0D1F80F4998
S214013AD0206802B0BDE870403EF0CAB8A800620295
S214013AE0035506007B810600FB5D06005A5506005D
S214013AF050550600817B060049550600907B06005E
S214013B00A07B0600AD7B0600D1700600205506009E
S214013B10A80068016C8406003B5D06006C55060033
S214013B2089840600496A060097840600A8001802E0
S214013B30D35D0600A45D0600AD5D060001570600D4
S214013B400D570600CB5506009C4B9E4203F056814E
S214013B5003F540339E4203F0B681A3F500239E424F
S214013B607FF4CDA8964920683EF082F80CF01CFD43
S214013B700CF04EFD934920683EF07AF89249206891
S214013B803EF076F8AA88914920683EF071F890498F
S214013B9020683EF06DF8EA888C4920683EF068F8A7
S214013BA08C4920683EF064F82A89884920683EF0EE
S214013BB05FF8894920683EF05BF86A898349206886
S214013BC03EF056F8854920683EF052F82A7B844933
S214013BD020683EF04DF88349206802B0BDE8704089
S214013BE03EF046B8804B9E4205F0DB8100F29B809A
S214013BF0A3F5A0239E4204F05C8433D8A3F5C0133A
S214013C009E4206F0FC8703F5B8139E4204F0FE823E
S214013C10A3F500139E427FF472A8694920683EF01E
S214013C2027F80CF0C1FC0CF0F3FC704920683EF05C
S214013C301FF86F4920683EF01BF86A686D492068D6
S214013C403EF016F86C4920683EF012F8297A05F124
S214013C500900FEF7D7FF6349206802B0BDE870404F
S214013C603EF006B8654B9E4204F0B68703F5003376
S214013C709E4205F00381A3F540339E427FF43FA8A0
S214013C804F4920683DF0F4FF0CF08EFC0CF0C0FCB0
S214013C905B4920683DF0ECFF4B4920683DF0E8FFAA
S214013CA0AA884A4920683DF0E3FF494920683DF06B
S214013CB0DFFFEA88454920683DF0DAFF454920687C
S214013CC03DF0D6FF2A89414920683DF0D1FF4D4994
S214013CD020683DF0CDFF6A893C4920683DF0C8FF69
S214013CE0494920683DF0C4FF2A7B3D4920683DF0E4
S214013CF0BFFF464920683DF0BBFFB5F80D203349AC
S214013D0020683DF0B5FF424920683DF0B1FFE97BF0
S214013D1005F11000FEF776FF3249206802B0BDE8D3
S214013D2070403DF0A5BF3B4B9E4206F0038177D81D
S214013D30A3F500339E4205F08F8403F580339E423F
S214013D4005F0A487A3F500339E427EF4D8AF1C4944
S214013D5020683DF08DFF0CF027FC0CF059FC2E4935
S214013D6020683DF085FF2D4920683DF081FFAA8837
S214013D70164920683DF07CFF154920683DF078FF24
S214013D80EA88124920683DF073FF0F4920683DF02C
S214013D906FFF2A890D4920683DF06AFF194920689E
S214013DA03DF066FF6A89094920683DF061FF0D49CB
S214013DB0206802B0BDE870403DF05ABFA8001F025F
S214013DC003550600855F0600145F06005A55060077
S214013DD0FB5D0600255F06006F560600B15F060014
S214013DE04955060020550600A8004D021F6306002F
S214013DF03B5D06006C5506003F630600A8004A02BC
S214013E00136F0600925E060052600600EC6C060018
S214013E10376F0600A80053024C740600605E060069
S214013E20A34B9E4205F0418503F540339E427EF446
S214013E3066AFA04920683DF01BFF0CF0B5FB0CF007
S214013E40E7FB9D4920683DF013FF9C4920683DF043
S214013E500FFFAA889A4920683DF00AFF9949206811
S214013E603DF006FFEA88964920683DF001FF964935
S214013E7020683DF0FDFE2A89914920683DF0F8FE54
S214013E80924920683DF0F4FE05F10A001021FEF784
S214013E90A1FE8F4920683DF0EBFEAA7E8D49206881
S214013EA03DF0E6FE8C4920683DF0E2FEEA7E894957
S214013EB020683DF0DDFE894920683DF0D9FEAA8BD9
S214013EC07F4920683DF0D4FE854920683DF0D0FE4C
S214013ED0EA8B7B4920683DF0CBFE824920683DF0A5
S214013EE0C7FE95F820207B4920683DF0C1FE7E493B
S214013EF0206802B0BDE870403DF0BABE7B4B9E42E2
S214013F0004F06A8400F27181A3F51C139E4202F04C
S214013F10F68700F29380A3F537039E4207F01783D6
S214013F204FD8A3F5E0239E4207F0568103F50033F0
S214013F309E4207F0C281A3F540339E427EF4DFAE77
S214013F405C4920683DF094FE0CF02EFB0CF060FB03
S214013F50674920683DF08CFE664920683DF088FE82
S214013F602A795C4920683DF083FE634920683DF06C
S214013F707FFE6A79574920683DF07AFE5F492068DE
S214013F803DF076FED5F806205D4920683DF070FECE
S214013F905C4920683DF06CFEAA7A4E4920683DF0E7
S214013FA067FE594920683DF063FEEA7A4949206870
S214013FB03DF05EFE4C49206802B0BDE870403DF021
S214013FC057BE524B9E4201F0358503F580339E4223
S214013FD002F07981A3F5A0139E427EF490AE354996
S214013FE020683DF045FE0CF0DFFA0CF011FB484965
S214013FF020683DF03DFE474920683DF039FEAA881D
S2140140002F4920683DF034FE434920683DF030FEDC
S214014010AA79304920683DF02BFE404920683DF0E2
S21401402027FEB5F80720264920683DF021FE2E49D7
S214014030206802B0BDE870403DF01ABE384B9E4283
S21401404006F01F8674D8A3F500239E4203F0DA8596
S21401405003F580339E4204F01280A3F500339E429E
S2140140607EF44DAE134920683DF002FE0CF09CFA3A
S2140140700CF0CEFA2B4920683DF0FAFD2A4920685B
S2140140803DF0F6FDAA880E4920683DF0F1FD27496E
S21401409020683DF0EDFDD5F80620194920683DF071
S2140140A0E7FD1149206802B0BDE870403DF0E0BD73
S2140140B0A800550203550600EF790600FB5D0600D1
S2140140C05A550600145F0600137A0600237A060086
S2140140D08964060049550600357A06005B770600B6
S2140140E0497A0600CD6B060020550600A800490354
S2140140F0A98306002C830600418306005783060029
S2140141006C5506002B82060069830600A80014037E
S214014110085E0600A45D0600AD5D0600365E06007C
S214014120A8003003506306006F5606003B5D06008C
S214014130AD4B9E4204F0BD8003F580339E427EF473
S214014140DEADAA4920683DF093FD0CF02DFA0CF087
S2140141505FFAA74920683DF08BFDA64920683DF02F
S21401416087FDAA88A44920683DF082FDA3492068FE
S2140141703DF07EFDEA88A04920683DF079FDA04922
S21401418020683DF075FD2A899B4920683DF070FD49
S2140141909C4920683DF06CFD6A89974920683DF08E
S2140141A067FD994920683DF063FD2A7B97492068A1
S2140141B03DF05EFD964920683DF05AFDB5F80D20AC
S2140141C08D4920683DF054FD924920683DF050FD30
S2140141D0B5F80F20884920683DF04AFD8E492068D1
S2140141E002B0BDE870403DF043BD8C4B9E4205F0E9
S2140141F08E8700F2AC80A3F5C0239E4205F0B285FF
S21401420057D8A3F5A0239E4204F0158703F5403343
S2140142109E4205F03181A3F580239E427EF46FAD68
S214014220724920683DF024FD0CF0BEF90CF0F0F95F
S2140142307B4920683DF01CFD7A4920683DF018FD59
S214014240AA886D4920683DF013FD6C4920683DF051
S2140142500FFDEA88684920683DF00AFD6549206837
S2140142603DF006FD2A89644920683DF001FD654957
S21401427020683DF0FDFC6A895F4920683DF0F8FC46
S214014280634920683DF0F4FCAA895B4920683DF04B
S214014290EFFC654920683DF0EBFCA97B05F10F00BA
S2140142A0FEF7B0FC5C49206802B0BDE870403DF006
S2140142B0DFBC5E4B9E4205F0278303F500339E422A
S2140142C005F0CE83A3F580239E427EF418AD4749C0
S2140142D020683DF0CDFC0CF067F90CF099F95449D3
S2140142E020683DF0C5FC464920683DF0C1FCAA881F
S2140142F0414920683DF0BCFC404920683DF0B8FCCF
S214014300EA883D4920683DF0B3FC3A4920683DF013
S214014310AFFC2A89384920683DF0AAFC3949206853
S2140143203DF0A6FC6A89344920683DF0A1FC41496C
S21401433020683DF09DFC2A7B344920683DF098FCBE
S2140143403549206802B0BDE870403DF091BC3A4B5B
S2140143509E4201F09D8377D8A3F530039E4206F076
S2140143606A8703F500339E4206F0CC87A3F55023F7
S2140143709E427EF4C4AC1D4920683DF079FC0CF0E9
S21401438013F90CF045F92D4920683DF071FC1B49E5
S21401439020683DF06DFCAA88174920683DF068FC4E
S2140143A0144920683DF064FCEA88134920683DF012
S2140143B05FFC234920683DF05BFC2A7A134920689C
S2140143C03DF056FC1F4920683DF052FCB5F8092027
S2140143D0094920683DF04CFC0F49206802B0BDE851
S2140143E070403DF045BC00BFA800470303550600DA
S2140143F0256E0600255F06005A550600FB5D060081
S214014400145F0600925E06005260060049550600DB
S214014410EC6C0600536E060020550600A8005803F3
S214014420C1710600605E0600E1710600A800550332
S2140144305A790600E6780600A8001404307D0600C6
S214014440AD5D0600567D0600774B9E4202F08585DF
S21401445003F5A0239E427EF452AC744920683DF0D9
S21401446007FC0CF0A1F80CF0D3F8714920683DF078
S214014470FFFB704920683DF0FBFBAA886E49206867
S2140144803DF0F6FB6D4920683DF0F2FBD5F80620BD
S2140144906B4920683DF0ECFB6A49206802B0BDE834
S2140144A070403DF0E5BB684B9E4201F0E98300F2A7
S2140144B0A48503F17B4303F58A039E4206F06781D8
S2140144C000F2EC82A3F186739E42604C04F0F38501
S2140144D000F29C81A3F575039E4205F03D8600F22D
S2140144E0CF80A3F570239E4204F0D3814DD8A3F567
S2140144F000339E4203F0308703F580339E4204F07A
S2140145002280A3F5F8139E427EF4F9AB4749206852
S2140145103DF0AEFB0CF048F80CF07AF84C492068F8
S2140145203DF0A6FB4B4920683DF0A2FBAA88424914
S21401453020683DF09DFB484920683DF099FBEA88DC
S2140145403D4920683DF094FB444920683DF090FBCE
S21401455008216818FEF73EFB414920683DF088FBBC
S2140145602A8A354920683DF083FB3E4920683DF0A4
S2140145707FFB6A8A304920683DF07AFB3149206822
S21401458002B0BDE870403DF073BB374B9E4204F06D
S214014590BD8703F5E0239E4205F0A182A3F5202303
S2140145A09E427EF4ACAB214920683DF061FB0BF0E6
S2140145B0FBFF0CF02DF82D4920683DF059FB2C49E6
S2140145C020683DF055FBAA881B4920683DF050FB4A
S2140145D0204920683DF04CFBEA88174920683DF0E9
S2140145E047FB244920683DF043FB2A89124920688D
S2140145F03DF03EFB204920683DF03AFB6A890E49B2
S21401460020683DF035FB1D4920683DF031FBEA6826
S2140146100B4920683DF02CFB0A49206802B0BDE832
S21401462070403DF025BB00BFA800220403550600DC
S214014630746306006F5606005A5506003B5D060079
S2140146406C55060020550600A800140B3C290020D6
S2140146502F6C0600FB5D0600145F06004769060026
S214014660096A0600186A0600A8005004D0720600FF
S214014670605E0600765E0600925E0600FA7206002E
S214014680924B9E4203F0A2827BD8A3F5A0139E42D2
S21401469001F02B8203F598139E4202F08C85A3F558
S2140146A04E039E427EF42BAB894920683DF0E0FA2A
S2140146B00BF07AFF0BF0ACFF864920683DF0D8FA84
S2140146C0854920683DF0D4FAAA88844920683DF0DF
S2140146D0CFFA834920683DF0CBFAEA887F49206803
S2140146E03DF0C6FA7F4920683DF0C2FA2A897B4927
S2140146F020683DF0BDFA7C4920683DF0B9FA6A8928
S214014700764920683DF0B4FA784920683DF0B0FA61
S214014710AA89724920683DF0ABFA754920683DF0D8
S214014720A7FAAA7B734920683DF0A2FA724920686D
S2140147303DF09EFAEA7B6F4920683DF099FA6F4991
S21401474020683DF095FA2A7C6A4920683DF090FA87
S2140147506B4920683DF08CFA6A7C664920683DF01A
S21401476087FA684920683DF083FAAA7C6149206887
S2140147703DF07EFA6449206802B0BDE870403DF025
S21401478077BA624B9E4203F03B8703F580339E4225
S21401479004F0EE80A3F5C8139E427EF4B0AA4C49FD
S2140147A020683DF065FA0BF0FFFE0BF031FF58492B
S2140147B020683DF05DFA574920683DF059FAAA880D
S2140147C0464920683DF054FA534920683DF050FAB6
S2140147D0EA88424920683DF04BFA504920683DF08E
S2140147E047FA2A7A434920683DF042FA4C49206844
S2140147F03DF03EFA6A7A3F4920683DF039FA42496F
S214014800206802B0BDE870403DF032BA454B9E428A
S21401481003F02F8200F29080A3F54F039E4205F02D
S214014820768729D8A3F500339E4205F0748103F5F7
S21401483080339E4205F0B584A3F500239E427EF4A4
S2140148405EAA234920683DF013FA0BF0ADFE0BF08B
S214014850DFFE354920683DF00BFA344920683DF00B
S21401486007FA2979681DFEF7CDF92749206802B0B5
S214014870BDE870403DF0FCB92D4B9E4201F07785B6
S21401488003F590139E4202F0BB84A3F598139E4253
S2140148907EF435AA0E4920683DF0EAF90BF084FE55
S2140148A00BF0B6FE234920683DF0E2F9194920686D
S2140148B03DF0DEF9AA88094920683DF0D9F9124988
S2140148C0206802B0BDE870403DF0D2B9A8002805C6
S2140148D003550600687D0600FB5D06005A55060076
S2140148E0255F0600B3560600567D060050550600A5
S2140148F0F15B060049550600907B06008C7D06009C
S214014900AD7B0600D170060020550600A8004805BC
S2140149107E8006006F560600A45D0600AD5D0600AB
S2140149207A570600A8002806B2740600D47406005A
S214014930A80015064F560600964B9E4204F01084BA
S21401494063D8A3F5E8139E4206F0E58103F5C81384
S2140149509E4204F06080A3F500139E427EF4CFA928
S2140149608D4920683DF084F90BF01EFE0BF050FED9
S2140149708A4920683DF07CF9894920683DF078F93C
S214014980AA88884920683DF073F9874920683DF078
S2140149906FF9AA79854920683DF06AF9844920684B
S2140149A03DF066F9E81D0821FEF714F981492068F3
S2140149B03DF05EF9D5F80F207F4920683DF058F9A3
S2140149C07E4920683DF054F9B5F8132075492068F2
S2140149D03DF04EF97A4920683DF04AF9D5F81520A0
S2140149E0754920683DF044F9764920683DF040F964
S2140149F0B5F819206B4920683DF03AF972492068EC
S214014A0002B0BDE870403DF033B9704B9E4205F0F0
S214014A10A78003F580339E427EF471A95E49206823
S214014A203DF026F90BF0C0FD0BF0F2FD6849206859
S214014A303DF01EF95A4920683DF01AF9AA885949ED
S214014A4020683DF015F9634920683DF011F9EA88C0
S214014A50544920683DF00CF95F4920683DF008F99B
S214014A60AA68554920683DF003F9514920683DF090
S214014A70FFF805F10C000821FEF7ACF8574920684D
S214014A803DF0F6F8297D05F11500FEF7BBF84E4915
S214014A90206802B0BDE870403DF0EAB8504B9E4237
S214014AA005F0AD8300F26C8103F17E4303F57F03CD
S214014AB09E424C4C05F0798000F29E80A3F53C1393
S214014AC09E4203F004812AD8A3F598139E4201F072
S214014AD0698403F590139E4202F0B883A3F59813F8
S214014AE09E427EF40CA92C4920683DF0C1F80BF0DB
S214014AF05BFD0BF08DFD3C4920683DF0B9F83B4964
S214014B0020683DF0B5F8AA88264920683DF0B0F83F
S214014B102D49206802B0BDE870403DF0A9B8344B7D
S214014B209E4203F0CB8703F580239E4204F0478321
S214014B30A3F510139E427EF4E2A8174920683DF0C3
S214014B4097F80BF031FD0BF063FD2A4920683DF024
S214014B508FF8134920683DF08BF8AA881149206820
S214014B603DF086F81B4920683DF082F8EA880D4939
S214014B7020683DF07DF80E4920683DF079F808215F
S214014B806818FEF727F81049206802B0BDE87040A3
S214014B903DF06EB8A8004D0603550600716B060081
S214014BA0FB5D06005A550600906B06004955060047
S214014BB047690600516906006C550600096A060039
S214014BC0186A06009C6B060020550600A8005706CA
S214014BD0CE7A0600145F0600F47A0600FB7A060019
S214014BE0A80058083C290020785606006F56060093
S214014BF0A80049074F6C0600B24B9E4202F04C8358
S214014C0000F28780A3F598139E4200F0CF8703F544
S214014C1080339E4201F03A84A3F53C039E427EF423
S214014C206EA8A94920683DF023F80BF0BDFC0BF0F7
S214014C30EFFCA64920683DF01BF8A54920683DF029
S214014C4017F8AA88A34920683DF012F8A2492068FF
S214014C503DF00EF8EA889F4920683DF009F89F4923
S214014C6020683DF005F82A7A9D4920683DF000F855
S214014C709C4920683CF0FCFF6A7A994920683CF020
S214014C80F7FF994920683CF0F3FF6A89914920684B
S214014C903CF0EEFF954920683CF0EAFFAA898D4971
S214014CA020683CF0E5FF924920683CF0E1FFAA7BD2
S214014CB08B4920683CF0DCFF8E4920683CF0D8FF29
S214014CC0B5F80F20834920683CF0D2FF8A49206856
S214014CD03CF0CEFF6A7C824920683CF0C9FF8749D8
S214014CE020683CF0C5FFAA7C7D4920683CF0C0FFE7
S214014CF0834920683CF0BCFFB5F81320754920684D
S214014D003CF0B6FF7F49206802B0BDE870403CF039
S214014D10AFBF7D4B9E4203F0378003F580339E4242
S214014D207DF4EDAF684920683CF0A2FF0BF03CFC37
S214014D300BF06EFC754920683CF09AFF64492068C8
S214014D403CF096FFAA88634920683CF091FF7049C1
S214014D5020683CF08DFFEA885E4920683CF088FFB9
S214014D606C4920683CF084FF297A05F10900FDF7BB
S214014D7049FF6449206802B0BDE870403CF078BF46
S214014D80654B9E4206F08A8000F2DC80A3F598030C
S214014D909E42624C01F0B08360D8A3F534039E4274
S214014DA006F0148003F533039E4200F02F87A3F527
S214014DB03B039E427DF4A3AF434920683CF058FF75
S214014DC00BF0F2FB0BF024FC554920683CF050FF39
S214014DD03F4920683CF04CFFAA883E4920683CF0D9
S214014DE047FF3D4920683CF043FFEA88394920687F
S214014DF03CF03EFF394920683CF03AFF2A7A3849B0
S214014E0020683CF035FF374920683CF031FF6A7A6C
S214014E10334920683CF02CFF424920683CF028FFCB
S214014E20AA7A2F4920683CF023FF3F4920683CF0CE
S214014E301FFFEA7A2A4920683CF01AFF3B4920689E
S214014E403CF016FF297B05F10D00FDF7DBFE2D4931
S214014E50206802B0BDE870403CF00ABF344B9E4269
S214014E6002F0AE8703F544139E4205F03185A3F5A3
S214014E7048139E427DF443AF134920683CF0F8FE88
S214014E800BF092FB0BF0C4FB2A4920683CF0F0FEC5
S214014E90294920683CF0ECFEAA880E4920683CF0BF
S214014EA0E7FE264920683CF0E3FED5F806202449B3
S214014EB020683CF0DDFE1349206802B0BDE8704072
S214014EC03CF0D6BEA800270803550600927E0600D1
S214014ED0FB5D06005A550600255F0600AD5D06001F
S214014EE049550600F15B0600137A0600925E06003D
S214014EF0BF700600497A0600CD6B0600357A0600BB
S214014F005B77060020550600A8002808706C06008E
S214014F10A26C0600B96C0600A80061093C290020B5
S214014F20BB7E0600AC560600AD7B0600FB7A06008B
S214014F30A8002809306406006F5606003B5D06008F
S214014F406C5506009F4B9E4203F0AB8613D8A3F523
S214014F500C139E4202F0EC8103F580339E4202F070
S214014F605D87A3F5A0139E427DF4C9AE02B0BDE8ED
S214014F707040FDF767BE944B944C9E4205F0F38457
S214014F8003F500239E427DF4BAAE914920683CF0B9
S214014F906FFE0BF009FB0BF03BFB8E4920683CF0E3
S214014FA067FE8D4920683CF063FEAA888B4920681D
S214014FB03CF05EFE8A4920683CF05AFED5F8062091
S214014FC0884920683CF054FE874920683CF050FE32
S214014FD005F10A000821FDF7FDFD844920683CF033
S214014FE047FEA97C05F11300FDF70CFE80492068F9
S214014FF002B0BDE870403CF03BBE7E4B734C9E4217
S21401500005F0A88200F22A8203F17B439E4205F056
S214015010C58100F20D8103F17E439E4205F06C814D
S2140150206DD8A3F57F039E4205F0DC8434D8A3F542
S21401503044139E4202F0408703F540139E4205F05A
S2140150400481A3F544139E427DF459AE604920685D
S2140150503CF00EFE0BF0A8FA0BF0DAFA664920686F
S2140150603CF006FE654920683CF002FEAA885B49D2
S21401507020683CF0FDFD624920683CF0F9FDD5F85A
S2140150800620584920683CF0F3FD5949206802B0D3
S214015090BDE870403CF0ECBD5A4B9E4202F0AF8139
S2140150A003F580339E4202F04186A3F5A0139E428B
S2140150B07DF425AE464920683CF0DAFD0BF074FA23
S2140150C00BF0A6FA504920683CF0D2FD4F49206803
S2140150D03CF0CEFD6A68434920683CF0C9FD4C4966
S2140150E020683CF0C5FD2A7A4A4920683CF0C0FD9C
S2140150F03F49206802B0BDE870403CF0B9BD464B60
S2140151009E4202F0108721D8A3F598139E4201F023
S214015110208203F590139E4202F09681A3F5981320
S2140151209E427DF4ECAD2A4920683CF0A1FD0BF0CF
S2140151303BFA0BF06DFA394920683CF099FD2C4991
S214015140206802B0BDE870403CF092BD344B9E42F0
S21401515000F0BC8503F598139E4202F09B81A3F5EF
S2140151604F039E427DF4CBAD194920683CF080FD8B
S2140151700BF01AFA0BF04CFA2A4920683CF078FD3D
S214015180154920683CF074FDAA88144920683CF053
S2140151906FFD254920683CF06BFDEA880F492068C1
S2140151A03CF066FD214920683CF062FD297A05F154
S2140151B00900FDF727FD0E49206802B0BDE87040E2
S2140151C03CF056BDA8004A0AA800590A3C2900200E
S2140151D003550600E1810600FB5D06005A550600F0
S2140151E0F47A06006C55060047690600FB7A06004D
S2140151F020550600A8005813C76406006F5606001F
S2140152003B5D0600A800270C5857060061550600AE
S2140152107A57060049550600A800280D8257060051
S214015220A800140EB87B0600145F06008B760600F5
S214015230AD4B9E4202F01A8200F2848003F17E4357
S21401524003F56D039E4200F071853ED8A3F56D030C
S2140152509E4202F0AF8103F544139E4205F0DE80C4
S214015260A3F588039E427DF44AADA04920683CF030
S214015270FFFC0BF099F90BF0CBF99D4920683CF047
S214015280F7FC9C4920683CF0F3FC2A799A4920688F
S2140152903CF0EEFC994920683CF0EAFCB5F80520A4
S2140152A0974920683CF0E4FC964920683CF0E0FC15
S2140152B0B5F80720924920683CF0DAFC924920684C
S2140152C002B0BDE870403CF0D3BC904B9E4205F066
S2140152D0E58003F53C039E4200F05685A3F56D0379
S2140152E09E427DF40CAD814920683CF0C1FC0BF078
S2140152F05BF90BF08DF9864920683CF0B9FC8549CD
S21401530020683CF0B5FCAA887D4920683CF0B0FCDA
S214015310814920683CF0ACFCD5F806207F4920681E
S2140153203CF0A6FC7E4920683CF0A2FCAA7A7249B1
S21401533020683CF09DFC7449206802B0BDE87040CE
S2140153403CF096BC774B9E4205F0D6803CD8A3F540
S21401535088039E4200F0468503F598139E4202F0AC
S214015360B481A3F54F039E427DF4C9AC5F49206822
S2140153703CF07EFC0BF018F90BF04AF96A492068FC
S2140153803CF076FC694920683CF072FCAA885C49CE
S21401539020683CF06DFC664920683CF069FCEA88B0
S2140153A0574920683CF064FC624920683CF060FC88
S2140153B0297A05F10900FDF725FC5349206802B05A
S2140153C0BDE870403CF054BC5B4B9E4200F06485E7
S2140153D003F598139E427DF492AC444920683CF054
S2140153E047FC0BF0E1F80BF013F9544920683CF048
S2140153F03FFC484920683CF03BFCAA8840492068AD
S2140154003CF036FC444920683CF032FCD5F80620D6
S214015410424920683CF02CFC494920683CF028FCB5
S214015420AA7A354920683CF023FC464920683CF0BE
S2140154301FFCEA7A304920683CF01AFC4249206891
S2140154403CF016FCAA892E4920683CF011FC2E4936
S214015450206802B0BDE870403CF00ABC3B4B9E425F
S21401546000F0098600F2388103F17E439E4200F087
S214015470A68500F2B78003F17F439E4200F0438584
S2140154806CD8A3F57F039E4201F0888003F5901344
S2140154909E4202F04981A3F598139E427DF42FACFB
S2140154A0124920683CF0E4FB0BF07EF80BF0B0F8F4
S2140154B0274920683CF0DCFB264920683CF0D8FBF5
S2140154C02A790D4920683CF0D3FB234920683CF03B
S2140154D0CFFB6979A81DFDF795FB0B49206802B043
S2140154E0BDE870403CF0C4BBA80027110355060078
S2140154F0B7570600AC56060049550600B3560600D7
S2140155005A550600A155060020550600A800581059
S214015510C46506006F5606003B5D06006C55060026
S214015520CB550600A80058125E7C0600FB5D0600FF
S214015530145F0600FB7A0600A80014133366060003
S214015540546606009B640600AE640600A8001418A4
S21401555077580600915806000F560600B34B9E4238
S21401556002F01B8103F544139E4205F04780A3F524
S21401557086039E427DF4C3ABAD4920683CF078FBC0
S2140155800BF012F80BF044F8AA4920683CF070FBC7
S214015590A94920683CF06CFBAA88A84920683CF021
S2140155A067FBA74920683CF063FBAA79A5492068F8
S2140155B03CF05EFBA44920683CF05AFBE81D102134
S2140155C0FDF708FBA14920683CF052FBEA7D9D49A6
S2140155D020683CF04DFB9E49206802B0BDE8704053
S2140155E03CF046BB9B4B9E4200F0298533D8A3F581
S2140155F06D039E4202F0008103F544139E4205F0BE
S2140156002280A3F586039E427DF479AB8849206803
S2140156103CF02EFB0AF0C8FF0AF0FAFF8E4920681C
S2140156203CF026FB844920683CF022FBAA8883498B
S21401563020683CF01DFB894920683CF019FBEA888C
S2140156407E4920683CF014FB8149206802B0BDE821
S21401565070403CF00DBB824B9E4200F0878503F5FF
S21401566090139E427DF44BAB714920683CF000FBE1
S2140156700AF09AFF0AF0CCFF7A4920683CF0F8FA63
S214015680764920683CF0F4FAAA886C4920683CF018
S214015690EFFA754920683CF0EBFAD5F80620734915
S2140156A020683CF0E5FA724920683CF0E1FA6A8924
S2140156B0624920683CF0DCFA6E4920683CF0D8FA72
S2140156C02A7B604920683CF0D3FA6149206802B021
S2140156D0BDE870403CF0CCBA674B9E4202F01881A0
S2140156E074D8A3F189739E4200F07D8732D8A3F562
S2140156F06E039E4202F0DC8003F56D039E4200F0CD
S2140157001E84A3F57F039E427DF4F9AA48492068CA
S2140157103CF0AEFA0AF048FF0AF07AFF57492068D3
S2140157203CF0A6FA484920683CF0A2FA281D102150
S214015730FDF750FA524920683CF09AFA2A7D414911
S21401574020683CF095FA4249206802B0BDE87040F6
S2140157503CF08EBA4B4B9E4200F0158403F5803325
S2140157609E4200F06487A3F56E039E427DF4C7AAAD
S2140157702F4920683CF07CFA0AF016FF0AF048FF31
S214015780414920683CF074FA374920683CF070FAC9
S2140157906A68364920683CF06BFA3C4920683CF060
S2140157A067FA2A7A274920683CF062FA3849206865
S2140157B03CF05EFA697A05F10A00FDF723FA2449FE
S2140157C0206802B0BDE870403CF052BA314B9E42B0
S2140157D002F0EA8062D803F17F439E4202F0BE8067
S2140157E003F56E039E4200F0468703F17F439E4217
S2140157F07DF485AA0E4920683CF03AFA0AF0D4FEF8
S2140158000AF006FF244920683CF032FA1349206862
S2140158103CF02EFAAA88094920683CF029FA0C497E
S214015820206802B0BDE870403CF022BAA8002715F7
S21401583003550600F95B0600EB5B06005A550600A9
S214015840F15B060049550600015A06001C5C06007D
S21401585020550600A8001417265C06006F560600A1
S214015860A8001517F66606003B5D06006C55060097
S214015870A1550600CB550600A800271ADF590600D9
S214015880085A0600A800141A606706009158060018
S2140158900F560600A800271C8D5C0600A54B9E42ED
S2140158A000F0168703F180739E427DF428AAA24970
S2140158B020683CF0DDF90AF077FE0AF0A9FE9F4960
S2140158C020683CF0D5F99E4920683CF0D1F9281DA6
S2140158D01021FDF77FF99B4920683CF0C9F92A7D24
S2140158E0994920683CF0C4F9984920683CF0C0F911
S2140158F06A7D954920683CF0BBF9954920683CF0E3
S214015900B7F9AA7D904920683CF0B2F99149206820
S2140159103CF0AEF9EA7D8C4920683CF0A9F98E4945
S21401592020683CF0A5F92A7E874920683CF0A0F95A
S2140159308A49206802B0BDE870403CF099B97E49BA
S21401594020683CF095F90AF02FFE0AF061FE8449C2
S21401595020683CF08DF9834920683CF089F92A7962
S214015960794920683CF084F97F4920683CF080F949
S214015970B5F805207D4920683CF07AF97C49206815
S2140159803CF076F9D5F807207A4920683CF070F9A2
S2140159907249206802B0BDE870403CF069B96649BA
S2140159A020683CF065F90AF0FFFD0AF031FE724905
S2140159B020683CF05DF96C4920683CF059F9AA88EA
S2140159C06A4920683CF054F9694920683CF050F96E
S2140159D0D5F80620674920683CF04AF95F492068F7
S2140159E002B0BDE870403CF043B9534920683CF032
S2140159F03FF90AF0D9FD0AF00BFE604920683CF039
S214015A0037F95F4920683CF033F9AA88574920687E
S214015A103CF02EF95B4920683CF02AF9EA885349A4
S214015A2020683CF025F94D49206802B0BDE8704079
S214015A303CF01EB9404920683CF01AF90AF0B4FD62
S214015A400AF0E6FD504920683CF012F94C492068FE
S214015A503CF00EF9AA88454920683CF009F9494905
S214015A6020683CF005F9EA88404920683CF000F9D6
S214015A70464920683CF0FCF8297A05F10900FDF753
S214015A80C1F83649206802B0BDE870403CF0F0B875
S214015A90294920683CF0ECF80AF086FD0AF0B8FDCA
S214015AA03B4920683CF0E4F83A4920683CF0E0F8CD
S214015AB02A79254920683CF0DBF8374920683CF014
S214015AC0D7F86A79204920683CF0D2F83349206833
S214015AD03CF0CEF8A979E81DFDF794F81F49206837
S214015AE002B0BDE870403CF0C3B8134920683CF0F2
S214015AF0BFF80AF059FD0AF08BFD294920683CF0F1
S214015B00B7F8284920683CF0B3F82A790E4920688E
S214015B103CF0AEF8244920683CF0AAF86A790A49B4
S214015B2020683CF0A5F80D49206802B0BDE8704039
S214015B303CF09EB8A800151D035506000F5D060033
S214015B40015A06001E590600495506002A59060044
S214015B50375906004F5906006759060020550600BA
S214015B60245506003B550600505506005A550600BA
S214015B70615506006C550600745506008B550600E7
S214015B80A1550600B0550600B5550600CB550600D2
S214015B90D3550600F1550600015606000F560600BD
S214015BA0165606003356060042560600A0492068DF
S214015BB03CF05EF80AF0F8FC0AF02AFD9D492068E0
S214015BC03CF056F89C4920683CF052F82A799B49EB
S214015BD020683CF04DF89A4920683CF049F8B5F841
S214015BE00520984920683CF043F8974920683CF026
S214015BF03FF8B5F80720934920683CF039F89349F7
S214015C00206802B0BDE870403CF032B88849206890
S214015C103CF02EF80AF0C8FC0AF0FAFC8C49206821
S214015C203CF026F88B4920683CF022F82A79834913
S214015C3020683CF01DF8884920683CF019F8B5F852
S214015C400520804920683CF013F8844920683CF020
S214015C500FF8B5F807207B4920683CF009F8804921
S214015C6020683CF005F8B5F80920764920683BF035
S214015C70FFFF7649206802B0BDE870403BF0F8BFF0
S214015C80784C6B4920683BF0F3FF0AF08DFC0AF074
S214015C90BFFC754920683BF0EBFF744920683BF078
S214015CA0E7FF6A68724920683BF0E2FF71492068A5
S214015CB03BF0DEFFAA686E4920683BF0D9FF6349D6
S214015CC0206802B0BDE870403BF0D2BF584920685A
S214015CD03BF0CEFF0AF068FC0AF09AFC66492068A1
S214015CE03BF0C6FF544920683BF0C2FF2A7953496E
S214015CF020683BF0BDFF524920683BF0B9FFB5F87C
S214015D000520504920683BF0B3FF4F4920683BF01F
S214015D10AFFFB5F807204B4920683BF0A9FF4B4978
S214015D20206802B0BDE870403BF0A2BF4049206841
S214015D303BF09EFF0AF038FC0AF06AFC4F492068E7
S214015D403BF096FF4E4920683BF092FFAA883D49FA
S214015D5020683BF08DFF4B4920683BF089FFEA88BD
S214015D60384920683BF084FF474920683BF080FFB4
S214015D702A7A324920683BF07BFF3449206802B01A
S214015D80BDE870403BF074BF294920683BF070FFC6
S214015D900AF00AFC0AF03CFC3C4920683BF068FF2C
S214015DA0374920683BF064FFAA88264920683BF003
S214015DB05FFF344920683BF05BFFEA882149206891
S214015DC03BF056FF324920683BF052FFAA6828494B
S214015DD020683BF04DFF1D49206802B0BDE87040C9
S214015DE03BF046BF124920683BF042FF0AF0DCFB5D
S214015DF00AF00EFC274920683BF03AFF204920684C
S214015E003BF036FFAA880F4920683BF031FF1D4959
S214015E1020683BF02DFFEA880A4920683BF028FFFE
S214015E200A49206802B0BDE870403BF021BF00BFC0
S214015E300355060097560600AC560600495506005F
S214015E40B35606005A550600A15506002055060011
S214015E50BB560600DB560600EF5606000157060045
S214015E600D5706003C290020185706003557060036
S214015E706C55060045570600A0570600CE5706008B
S214015E80E3570600EE570600F957060000580600CD
S214015E901B58060028580600984920683BF0E8FE83
S214015EA00AF082FB0AF0B4FB954920683BF0E0FE5D
S214015EB0944920683BF0DCFEAA88934920683BF0B1
S214015EC0D7FE924920683BF0D3FEAA799049206814
S214015ED03BF0CEFE8F4920683BF0CAFEEA798C493A
S214015EE020683BF0C5FE8C4920683BF0C1FEAA68DD
S214015EF08A4920683BF0BCFE8949206802B0BDE8AB
S214015F0070403BF0B5BE7D4920683BF0B1FE0AF01B
S214015F104BFB0AF07DFB834920683BF0A9FE8249D2
S214015F2020683BF0A5FEAA88774920683BF0A0FED2
S214015F307B49206802B0BDE870403BF099BE6F49CE
S214015F4020683BF095FE0AF02FFB0AF061FB7749CB
S214015F5020683BF08DFE764920683BF089FE2A7961
S214015F606B4920683BF084FE724920683BF080FE56
S214015F706979A81DFCF746FE6949206802B0BDE8AC
S214015F8070403BF075BE5D4920683BF071FE0AF03B
S214015F900BFB0AF03DFB684920683BF069FE62494D
S214015FA020683BF065FEAA88574920683BF060FEF2
S214015FB05B49206802B0BDE870403BF059BE4F49CE
S214015FC020683BF055FE0AF0EFFA0AF021FB5B4928
S214015FD020683BF04DFE5A4920683BF049FE2A797D
S214015FE04B4920683BF044FE564920683BF040FE92
S214015FF06A79474920683BF03BFE534920683BF0ED
S21401600037FEAA79424920683BF032FE4F492068A4
S2140160103BF02EFEEA793E4920683BF029FE4C49CA
S21401602020683BF025FE2A7A394920683BF020FE9D
S2140160303B49206802B0BDE870403BF019BE2F49CD
S21401604020683BF015FE0AF0AFFA0AF0E1FA414982
S21401605020683BF00DFE404920683BF009FEAA8807
S214016060294920683BF004FE2D49206802B0BDE8AE
S21401607070403BF0FDBD214920683BF0F9FD0AF078
S21401608093FA0AF0C5FA354920683BF0F1FD244938
S214016090206802B0BDE870403BF0EABD17492068B1
S2140160A03BF0E6FD0AF080FA0AF0B2FA2C492068C5
S2140160B03BF0DEFD2B4920683BF0DAFD2A791449D6
S2140160C020683BF0D5FD284920683BF0D1FDB5F8A6
S2140160D005200D4920683BF0CBFD0F4920683BF0B9
S2140160E0C7FDD5F807200D4920683BF0C1FD0C49D6
S2140160F0206802B0BDE870403BF0BABD035506000B
S21401610042580600A15506005A5506005D5806007D
S214016110495506006B580600615506006C55060089
S21401612020550600985806006F560600B658060019
S214016130915806000F560600DB5806000459060063
S2140161401E5906002A590600375906004F590600FF
S214016150675906007D59060098590600A65906009B
S214016160BD590600D459060050550600A8492068B6
S2140161703BF07EFD0AF018FA0AF04AFAA5492068B3
S2140161803BF076FDA44920683BF072FD281D1021E6
S214016190FCF720FDA14920683BF06AFD2A7DA04955
S2140161A020683BF065FD9F4920683BF061FDB5F82E
S2140161B015209D4920683BF05BFD9C4920683BF01B
S2140161C057FDEA7D964920683BF052FD98492068C4
S2140161D03BF04EFD2A7E924920683BF049FD9549E9
S2140161E020683BF045FD6A7E8D4920683BF040FD06
S2140161F0914920683BF03CFD6A8B8B4920683BF057
S21401620037FD8E4920683BF033FD2A7F844920689C
S2140162103BF02EFD8A4920683BF02AFDB5F81D208B
S214016220814920683BF024FD8649206802B0BDE81C
S21401623070403BF01DBD764920683BF019FD0AF021
S214016240B3F90AF0E5F9804920683BF011FD7F4972
S21401625020683BF00DFD2A79714920683BF008FD66
S2140162606D4920683BF004FD681D1021FCF7B2FC67
S2140162707449206802B0BDE870403BF0F9BC64493F
S21401628020683BF0F5FC0AF08FF90AF0C1F9704975
S21401629020683BF0EDFC6F4920683BF0E9FCAA88DA
S2140162A0614920683BF0E4FC5B4920683BF0E0FC78
S2140162B0A81D1021FCF78EFC6249206802B0BDE8DB
S2140162C070403BF0D5BC524920683BF0D1FC0AF047
S2140162D06BF90AF09DF9604920683BF0C9FC5F49FB
S2140162E020683BF0C5FCAA884F4920683BF0C0FCFB
S2140162F05B4920683BF0BCFCD5F80620594920686C
S2140163003BF0B6FC584920683BF0B2FCAA7A4449F7
S21401631020683BF0ADFC4F4920683BF0A9FC05F135
S2140163200B000621FCF756FC504920683BF0A0FC08
S2140163306A7C3B4920683BF09BFC374920683BF070
S21401634097FC05F112001021FCF744FC484920682F
S2140163503BF08EFC95F92220464920683BF088FCEC
S2140163603849206802B0BDE870403BF081BC28493E
S21401637020683BF07DFC0AF017F90AF049F93E491E
S21401638020683BF075FC244920683BF071FC281D11
S2140163901021FCF71FFC2B49206802B0BDE87040B5
S2140163A03BF066BC1A4920683BF062FC0AF0FCF838
S2140163B00AF02EF9314920683BF05AFC3049206832
S2140163C03BF056FC2A79164920683BF051FC2D49D2
S2140163D020683BF04DFC6A79114920683BF048FC87
S2140163E0294920683BF044FCAA790D4920683BF016
S2140163F03FFC094920683BF03BFCE81D1021FCF7F7
S214016400E9FB1049206802B0BDE870403BF030BCA3
S21401641003550600115A0600015A0600295A0600BD
S21401642049550600345A06005A550600415A0600D8
S2140164304D5A06005F5A0600705A0600845A060036
S214016440955A060020550600A95A0600085A060065
S214016450C85A060050550600E65A0600FF5A0600BE
S214016460125B06006C5506001D5B0600265B0600E7
S214016470355B06003C5B06003F5B06005B5B060087
S214016480775B0600F155060001560600B049206804
S2140164903BF0EEFB0AF088F80AF0BAF8AD4920683E
S2140164A03BF0E6FBAC4920683BF0E2FB281D1021DF
S2140164B0FCF790FBA94920683BF0DAFB2A7DA84946
S2140164C020683BF0D5FBA74920683BF0D1FB6A7DED
S2140164D0A34920683BF0CCFBA34920683BF0C8FBEE
S2140164E0A97D05F11700FCF78DFBA049206802B0D5
S2140164F0BDE870403BF0BCBB954920683BF0B8FB5B
S2140165000AF052F80AF084F8994920683BF0B0FB8B
S214016510914920683BF0ACFB281D1021FCF75AFB83
S214016520944920683BF0A4FBAA8A934920683BF073
S2140165309FFB924920683BF09BFBAA7D8849206817
S2140165403BF096FB8949206802B0BDE870403BF0FD
S2140165508FBB7F4920683BF08BFB0AF025F80AF0D9
S21401656057F8874920683BF083FB864920683BF053
S2140165707FFB6A68844920683BF07AFB7A49206889
S2140165803BF076FB297A05F10900FCF73BFB7749DE
S214016590206802B0BDE870403BF06ABB6C492068D9
S2140165A03BF066FB0AF000F80AF032F877492068FB
S2140165B03BF05EFB764920683BF05AFBAA886E49A1
S2140165C020683BF055FB734920683BF051FBAA79E4
S2140165D0634920683BF04CFB6449206802B0BDE883
S2140165E070403BF045BB5A4920683BF041FB09F03F
S2140165F0DBFF0AF00DF8684920683BF039FB674974
S21401660020683BF035FBAA885B4920683BF030FBED
S214016610514920683BF02CFBA81D1021FCF7DAFA43
S2140166205249206802B0BDE870403BF021BB4849A2
S21401663020683BF01DFB09F0B7FF09F0E9FF584958
S21401664020683BF015FB554920683BF011FBAA88F2
S214016650494920683BF00CFB3F4920683BF008FBAA
S214016660A81D1021FCF7B6FA4049206802B0BDE823
S21401667070403BF0FDBA364920683BF0F9FA09F064
S21401668093FF09F0C5FF474920683BF0F1FA4349FB
S21401669020683BF0EDFAAA88374920683BF0E8FA13
S2140166A02D4920683BF0E4FAA81D1021FCF792FA68
S2140166B03D4920683BF0DCFAA97D05F11700FCF79F
S2140166C0A1FA2A49206802B0BDE870403BF0D0BA72
S2140166D01F4920683BF0CCFA09F066FF09F098FFE5
S2140166E0324920683BF0C4FA2C4920683BF0C0FAD6
S2140166F0AA88214920683BF0BBFA174920683BF07D
S214016700B7FAA81D1021FCF765FA294920683BF065
S214016710AFFAEA8A184920683BF0AAFA25492068A8
S2140167203BF0A6FA2A7E0E4920683BF0A1FA0E49F4
S21401673020683BF09DFA697E05F11A00FCF762FAC3
S2140167400A49206802B0BDE870403BF091BA00BF2C
S21401675003550600805B0600015A06003356060004
S21401676049550600425606000F56060020550600FB
S2140167709D5B0600505506005A550600295A06002C
S214016780B15B0600C05B06006C550600C75B0600E1
S214016790EB5B0600F15B0600465C06006F560600E2
S2140167A0685C0600AE5C0600D35C0600DA5C060098
S2140167B0FE5C0600075D0600984920683BF058FA23
S2140167C009F0F2FE09F024FF954920683BF050FAE3
S2140167D0944920683BF04CFA6A68934920683BF07C
S2140167E047FA9249206802B0BDE870403BF040BAD3
S2140167F08A4920683BF03CFA09F0D6FE09F008FF0A
S2140168008B4920683BF034FA864920683BF030FA21
S2140168106A68854920683BF02BFA864920683BF078
S21401682027FA2A7A844920683BF022FA83492068AD
S2140168303BF01EFAB5F80920814920683BF018FAAA
S2140168407A49206802B0BDE870403BF011BA73493E
S21401685020683BF00DFA09F0A7FE09F0D9FE794948
S21401686020683BF005FA784920683BF001FAAA88CF
S214016870734920683BF0FCF9744920683BF0F8F94D
S214016880AA796D4920683BF0F3F9714920683BF01D
S214016890EFF9EA79684920683BF0EAF96D49206822
S2140168A03BF0E6F9AA68604920683BF0E1F95F49E8
S2140168B0206802B0BDE870403BF0DAB9574920685D
S2140168C03BF0D6F909F070FE09F0A2FE6249206895
S2140168D03BF0CEF9614920683BF0CAF9AA885849CD
S2140168E020683BF0C5F95E4920683BF0C1F9EA88AB
S2140168F0534920683BF0BCF95A4920683BF0B8F987
S2140169002A894F4920683BF0B3F9574920683BF084
S214016910AFF96A894A4920683BF0AAF953492068C9
S2140169203BF0A6F9AA89464920683BF0A1F95049EF
S21401693020683BF09DF995F90E204E4920683BF002
S21401694097F94D4920683BF093F9B5F80F203C497B
S21401695020683BF08DF9494920683BF089F96A7C4B
S214016960354920683BF084F9454920683BF080F9B9
S214016970AA7C314920683BF07BF9424920683BF00C
S21401698077F9EA7C2C4920683BF072F93E49206889
S2140169903BF06EF92A7D284920683BF069F93B49AE
S2140169A020683BF065F9697D05F11600FCF72AF9C8
S2140169B01E49206802B0BDE870403BF059B917493E
S2140169C020683BF055F909F0EFFD09F021FE30494A
S2140169D020683BF04DF92F4920683BF049F9AA8819
S2140169E0174920683BF044F90E4920683BF040F90E
S2140169F0EA88134920683BF03BF9214920683BF0BF
S214016A0037F92A7A0C4920683BF032F907492068A1
S214016A1002B0BDE870403BF02BB900BF035506003D
S214016A20255D06003B5D06006C55060020550600F8
S214016A305D5D0600AC56060049550600775D06000A
S214016A405A5506007F5D0600A45D0600AD5D060092
S214016A50B65D0600BF5D0600455E0600605E060088
S214016A60FB5D0600015706000D570600765E060020
S214016A70875E06003C5B0600925E0600A15E06008D
S214016A80AE5E0600BE5E0600075D0600C75E060037
S214016A90D15E06006F560600894920683BF0E8F88B
S214016AA009F082FD09F0B4FD864920683BF0E0F864
S214016AB0854920683BF0DCF8AA88844920683BF0C9
S214016AC0D7F8834920683BF0D3F8EA887F492068E5
S214016AD03BF0CEF87F4920683BF0CAF82A897B490B
S214016AE020683BF0C5F87C4920683BF0C1F86A890C
S214016AF0764920683BF0BCF8784920683BF0B8F846
S214016B002A7B774920683BF0B3F87649206802B0C3
S214016B10BDE870403BF0ACB8694920683BF0A8F886
S214016B2009F042FD09F074FD6F4920683BF0A0F8BA
S214016B30674920683BF09CF8AA88644920683BF0C6
S214016B4097F86A4920683BF093F8AA796449206867
S214016B503BF08EF86349206802B0BDE870403BF018
S214016B6087B8574920683BF083F809F01DFD09F006
S214016B704FFD5F4920683BF07BF8564920683BF0A3
S214016B8077F8AA88514920683BF072F85049206886
S214016B903BF06EF8EA884D4920683BF069F84A49AF
S214016BA020683BF065F82A89484920683BF060F880
S214016BB0504920683BF05CF86A89444920683BF0FC
S214016BC057F84D4920683BF053F82A7B4449206822
S214016BD03BF04EF8494920683BF04AF8B5F80D20DD
S214016BE03A4920683BF044F8454920683BF040F8B4
S214016BF0EA7B3B4920683BF03BF83A49206802B003
S214016C00BDE870403BF034B82D4920683BF030F8C1
S214016C1009F0CAFC09F0FCFC3A4920683BF028F868
S214016C20294920683BF024F8AA88284920683BF0C7
S214016C301FF8274920683BF01BF8EA88234920689B
S214016C403BF016F8304920683BF012F82A891F49B4
S214016C5020683BF00DF81F4920683BF009F86A8967
S214016C601A4920683BF004F8284920683BF000F8F0
S214016C70EA68274920683AF0FBFF264920683AF07F
S214016C80F7FF2A8A114920683AF0F2FF2249206864
S214016C903AF0EEFFAA7C124920683AF0E9FF1F4954
S214016CA020683AF0E5FFE97C05F11400FBF7AAFF3E
S214016CB00C49206802B0BDE870403AF0D9BF00BF69
S214016CC003550600535F0600145F06005A5506007A
S214016CD0FB5D0600255F06006F5606007C5F06001A
S214016CE04955060020550600C15F0600DF5F060015
S214016CF0EB5F0600925E0600405F06000157060045
S214016D000C600600206006000D5706004360060072
S214016D106C55060052600600AC5606005A60060026
S214016D20AA4920683AF0A4FF09F03EFC09F070FC7D
S214016D30A74920683AF09CFFA64920683AF098FFD8
S214016D40AA88A54920683AF093FFA44920683AF03A
S214016D508FFFEA88A04920683AF08AFFA049206898
S214016D603AF086FF2A899C4920683AF081FF9D49BE
S214016D7020683AF07DFF6A89974920683AF078FFE3
S214016D80994920683AF074FFAA89934920683AF035
S214016D906FFF964920683AF06BFFD5F80E209449AC
S214016DA020683AF065FF934920683AF061FF6A8AE5
S214016DB0894920683AF05CFF8F4920683AF058FF0D
S214016DC0AA8A854920683AF053FF8C4920683AF030
S214016DD04FFFAA7D8A4920683AF04AFF8949206810
S214016DE03AF046FFE97D05F11800FBF70BFF8649EF
S214016DF0206802B0BDE870403AF03ABF7349206897
S214016E003AF036FF09F0D0FB09F002FC7F49206812
S214016E103AF02EFF714920683AF02AFFAA886E4997
S214016E2020683AF025FF6E4920683AF021FFEA888B
S214016E30694920683AF01CFF754920683AF018FF46
S214016E40AA686B4920683AF013FF6C4920683AF04B
S214016E500FFF2A7B6A4920683AF00AFF69492068D1
S214016E603AF006FF697B05F10E00FBF7CBFE66499B
S214016E70206802B0BDE870403AF0FABE5349206877
S214016E803AF0F6FE09F090FB09F0C2FB6149206872
S214016E903AF0EEFE604920683AF0EAFEAA884E49CA
S214016EA020683AF0E5FE5D4920683AF0E1FEAA79ED
S214016EB0534920683AF0DCFE5349206802B0BDE829
S214016EC070403AF0D5BE414920683AF0D1FE09F04B
S214016ED06BFB09F09DFB524920683AF0C9FE4E490A
S214016EE020683AF0C5FEAA883B4920683AF0C0FE01
S214016EF04549206802B0BDE870403AF0B9BE334952
S214016F0020683AF0B5FE09F04FFB09F081FB4549D0
S214016F1020683AF0ADFE444920683AF0A9FEAA88F6
S214016F202D4920683AF0A4FE404920683AF0A0FEB8
S214016F30EA88294920683AF09BFE3D4920683AF0E4
S214016F4097FE2A89244920683AF092FE2E49206845
S214016F5002B0BDE870403AF08BBE1C4920683AF09A
S214016F6087FE09F021FB09F053FB324920683AF00D
S214016F707FFE2549206802B0BDE870403AF078BE31
S214016F80124920683AF074FE09F00EFB09F040FB46
S214016F90294920683AF06CFE284920683AF068FED4
S214016FA0AA880D4920683AF063FE254920683AF020
S214016FB05FFEEA88084920683AF05AFE12492068BE
S214016FC002B0BDE870403AF053BE00BF035506005C
S214016FD067600600255F06005A550600FB5D060041
S214016FE00D570600145F0600925E06008B600600D1
S214016FF06C5506009B60060052600600AC56060003
S214017000495506005A60060020550600C96006006C
S214017010EB600600456106005055060071610600EA
S2140170207A610600AA6106006F560600D261060064
S214017030E0610600EE61060015620600A155060035
S21401704036620600A74920683AF012FE09F0ACFA4B
S21401705009F0DEFAA44920683AF00AFEA34920683E
S2140170603AF006FEAA88A24920683AF001FEA14934
S21401707020683AF0FDFDEA889D4920683AF0F8FD5F
S2140170809D49206802B0BDE870403AF0F1BD9549CF
S21401709020683AF0EDFD09F087FA09F0B9FA974948
S2140170A020683AF0E5FD914920683AF0E1FDAA88AA
S2140170B08F4920683AF0DCFD8E4920683AF0D8FD09
S2140170C0EA888B4920683AF0D3FD8B49206802B0E4
S2140170D0BDE870403AF0CCBD824920683AF0C8FD60
S2140170E009F062FA09F094FA854920683AF0C0FD81
S2140170F07E4920683AF0BCFDAA887D4920683AF0AE
S214017100B7FD804920683AF0B3FDEA8878492068DF
S2140171103AF0AEFD7849206802B0BDE870403AF01A
S214017120A7BD704920683AF0A3FD09F03DFA09F0C1
S2140171306FFA754920683AF09BFD6C4920683AF071
S21401714097FDAA886A4920683AF092FD6D49206841
S2140171503AF08EFDEA88664920683AF089FD65496D
S21401716020683AF085FD2A89614920683AF080FD59
S2140171706149206802B0BDE870403AF079BD5949CE
S21401718020683AF075FD09F00FFA09F041FA5F49F7
S21401719020683AF06DFD5E4920683AF069FD6A683C
S2140171A05C4920683AF064FD5349206802B0BDE8A6
S2140171B070403AF05DBD4B4920683AF059FD09F040
S2140171C0F3F909F025FA544920683AF051FD50497F
S2140171D020683AF04DFD6A684E4920683AF048FD4D
S2140171E04E4920683AF044FD297A05F10900FBF77B
S2140171F009FD4149206802B0BDE870403AF038BD4B
S214017200384920683AF034FD09F0CEF909F000FA61
S214017210434920683AF02CFD424920683AF028FD9F
S214017220AA88334920683AF023FD394920683AF0A4
S2140172301FFDD5F80620374920683AF019FD2E497A
S214017240206802B0BDE870403AF012BD25492068BA
S2140172503AF00EFD09F0A8F909F0DAF9324920688A
S2140172603AF006FD2F4920683AF002FDAA88204927
S21401727020683AF0FDFC264920683AF0F9FCD5F87A
S2140172800620244920683AF0F3FC1B49206802B026
S214017290BDE870403AF0ECBC124920683AF0E8FCD0
S2140172A009F082F909F0B4F9204920683AF0E0FCC7
S2140172B0174920683AF0DCFC6A68164920683AF0FB
S2140172C0D7FC164920683AF0D3FC297A05F1090063
S2140172D0FBF798FC0849206802B0BDE870403AF018
S2140172E0C7BC00BF0355060047620600A15506004D
S2140172F05A550600085A0600205506006362060025
S21401730083620600A7620600B5620600D862060020
S2140173103B5D06006C55060096630600B6630600E4
S214017320C76306006F560600EB6306000E64060090
S214017330874C884920683AF09BFC09F035F909F03A
S21401734067F9854920683AF093FC844920683AF049
S2140173508FFCAA88824920683AF08AFC8149206815
S2140173603AF086FCD5F806207F4920683AF080FC82
S2140173707E4920683AF07CFC6A89794920683AF0AF
S21401738077FC7B4920683AF073FCAA897449206827
S2140173903AF06EFC774920683AF06AFCAA7B764997
S2140173A020683AF065FC754920683AF061FCEA7B92
S2140173B0714920683AF05CFC714920683AF058FC43
S2140173C02A69694920683AF053FC6E4920683AF008
S2140173D04FFC2A7D684920683AF04AFC6A492068D1
S2140173E03AF046FCB5F815205D4920683AF040FCB5
S2140173F06649206802B0BDE870403AF039BC55498C
S21401740020683AF035FC09F0CFF809F001F9604937
S21401741020683AF02DFC534920683AF029FC6A6846
S214017420514920683AF024FC5A4920683AF020FC79
S214017430297A05F10900FBF7E5FB5449206802B0FB
S214017440BDE870403AF014BC424920683AF010FC9E
S21401745009F0AAF809F0DCF84F4920683AF008FC70
S2140174603E4920683AF004FCAA883D4920683AF073
S214017470FFFB3C4920683AF0FBFBD5F806203A4969
S21401748020683AF0F5FB4149206802B0BDE870403B
S2140174903AF0EEBB2F4920683AF0EAFB09F084F88F
S2140174A009F0B6F83D4920683AF0E2FB2B4920681E
S2140174B03AF0DEFBAA882A4920683AF0D9FB294926
S2140174C020683AF0D5FBD5F80620274920683AF01F
S2140174D0CFFB334920683AF0CBFB6A892049206804
S2140174E03AF0C6FB2F4920683AF0C2FBAA891C492C
S2140174F020683AF0BDFB2C4920683AF0B9FBAA7B1C
S2140175001D4920683AF0B4FB284920683AF0B0FBE0
S214017510EA7B194920683AF0ABFB184920683AF033
S214017520A7FB2A7C144920683AF0A2FB2049206870
S2140175303AF09EFBB5F81120094920683AF098FB0D
S2140175401249206802B0BDE870403AF091BB00BF16
S2140175503C29002003550600566406006F560600B7
S2140175605A5506003B5D06006C5506005055060050
S214017570925E06007B640600495506008964060093
S2140175808F6406009B640600AE6406002055060064
S214017590EC6406000A6506001665060038650600F6
S2140175A0605E0600A1550600616506006D65060071
S2140175B07A650600A84920683AF05AFB08F0F4FFFD
S2140175C009F026F8A54920683AF052FBA44920683C
S2140175D03AF04EFBAA88A34920683AF049FBA24933
S2140175E020683AF045FBD5F80620A04920683AF015
S2140175F03FFB9F4920683AF03BFB6A89994920681E
S2140176003AF036FB9B4920683AF032FBAA89954945
S21401761020683AF02DFB984920683AF029FBAA7BAE
S214017620964920683AF024FB954920683AF020FBF9
S214017630EA7B924920683AF01BFB924920683AF0AF
S21401764017FB2A7C8D4920683AF012FB8E49206888
S2140176503AF00EFB6A7C894920683AF009FB8B49AF
S214017660206802B0BDE870403AF002BB7A49206853
S2140176703AF0FEFA08F098FF08F0CAFF844920683D
S2140176803AF0F6FA764920683AF0F2FAAA8875498D
S21401769020683AF0EDFA744920683AF0E9FAD5F82C
S2140176A00620724920683AF0E3FA7A4920683AF0EF
S2140176B0DFFAAA7A714920683AF0DAFA7349206843
S2140176C002B0BDE870403AF0D3BA634920683AF098
S2140176D0CFFA08F069FF08F09BFF6F4920683AF07F
S2140176E0C7FA5F4920683AF0C3FAAA885D4920685C
S2140176F03AF0BEFA5C4920683AF0BAFAD5F80620A4
S2140177005A4920683AF0B4FA624920683AF0B0FA69
S214017710AA7A5A4920683AF0ABFA5C49206802B066
S214017720BDE870403AF0A4BA4B4920683AF0A0FA96
S21401773008F03AFF08F06CFF584920683AF098FACA
S214017740474920683AF094FAAA88464920683AF0F0
S2140177508FFA454920683AF08BFAD5F80620434956
S21401776020683AF085FA4E4920683AF081FAAA7AFA
S214017770424920683AF07CFA4A4920683AF078FA99
S214017780B5F80B20374920683AF072FA3F4920686D
S21401779002B0BDE870403AF06BBA2F4920683AF063
S2140177A067FA08F001FF08F033FF3F4920683AF016
S2140177B05FFA2B4920683AF05BFAAA8829492068C3
S2140177C03AF056FA284920683AF052FAD5F80620D7
S2140177D0264920683AF04CFA2E4920683AF048FAD1
S2140177E0AA7A264920683AF043FA2849206802B066
S2140177F0BDE870403AF03CBA174920683AF038FACA
S21401780008F0D2FE08F004FF284920683AF030FA62
S214017810134920683AF02CFAAA88124920683AF0EF
S21401782027FA114920683AF023FAD5F806200F49BD
S21401783020683AF01DFA174920683AF019FAAA7A30
S2140178400E4920683AF014FA1049206802B0BDE8E3
S21401785070403AF00DBA00BF035506008565060074
S2140178606F5606005A5506003B5D06006C5506002D
S214017870765E0600605E06006D65060049550600E8
S21401788061650600AE650600B9650600205506006E
S214017890E6650600CB5506000D6606005C6606002A
S2140178A08866060099660600B0660600D46606007D
S2140178B0A74920683AF0DCF908F076FE08F0A8FE41
